{
  "fileName": "Land.sol",
  "contractName": "Land",
  "source": "pragma solidity ^0.6.0;\n\nimport \"@openzeppelin/contracts/access/Ownable.sol\";\nimport \"@openzeppelin/contracts/token/ERC20/IERC20.sol\";\nimport \"./LandInterface.sol\";\nimport \"@openzeppelin/contracts/math/SafeMath.sol\";\n\ncontract Land is Context, IERC20, LandInterface {\n    using SafeMath for uint256;\n    using SafeMath for uint256;\n    mapping(address => uint256) private _balances;\n    mapping(address => mapping(address => uint256)) private _allowances;\n    mapping(uint256 => address) private _companyAddress;\n    address private _minter;\n    uint256 private _totalSupply;\n    uint256 private _costWei;\n    uint256 private _costToken;\n    uint256 private _RIDglobal;\n    address payable _LDaddress;\n    modifier onlyLD() {\n        require(isLD(), \"Only Department of Land has permission to do this\");\n        _;\n    }\n\n    function isLD() public view returns (bool) {\n        return _msgSender() == _minter;\n    }\n\n    RequestForLand[] public requests;\n\n    function acceptRequest(uint256 RID, string memory hash)\n        public\n        override\n        onlyLD\n    {\n        require(_getRequestStatus(RID) == false, \"Request has been decided.\");\n        _setRequestStatus(RID, true);\n        _setRequestApproval(RID, true);\n        _setHash(RID, hash);\n        emit DecisionOnRequest(\n            RID,\n            _getRequestStatus(RID),\n            _getRequestApproval(RID)\n        );\n    }\n\n    function sendRequest(string memory encryptedData, string memory docHash)\n        public\n        override\n        returns (uint256)\n    {\n        require(\n            balanceOf(_msgSender()) >= _costToken,\n            \"Not enough tokens in your account\"\n        );\n        transfer(_minter, _costToken);\n        _companyAddress[_RIDglobal] = _msgSender();\n        requests.push(\n            RequestForLand(\n                _RIDglobal,\n                false,\n                false,\n                _msgSender(),\n                encryptedData,\n                docHash\n            )\n        );\n        emit RequestSent(_msgSender(), _minter, _costToken, _RIDglobal);\n        _RIDglobal += 1;\n        return _RIDglobal - 1;\n    }\n\n    function getGlobalId() public view returns (uint256) {\n        return _RIDglobal;\n    }\n\n    function rejectRequest(uint256 RID) public override onlyLD {\n        require(\n            balanceOf(_minter) >= _costToken,\n            \"Not enough tokens in minter account to transfer.\"\n        );\n        require(_getRequestStatus(RID) == false, \"Request has been decided.\");\n        _setRequestStatus(RID, true);\n        _setRequestApproval(RID, false);\n        _transfer(_minter, requests[RID].companyAddress, _costToken);\n        emit DecisionOnRequest(\n            RID,\n            _getRequestStatus(RID),\n            _getRequestApproval(RID)\n        );\n    }\n\n    function checkRequest(uint256 RID)\n        public\n        override\n        view\n        returns (\n            uint256,\n            bool,\n            bool,\n            address,\n            string memory,\n            string memory\n        )\n    {\n        return (\n            RID,\n            _getRequestStatus(RID),\n            _getRequestApproval(RID),\n            _getRequestAddress(RID),\n            _getRequestData(RID),\n            _getRequestHash(RID)\n        );\n    }\n\n    function setHash(uint256 RID, string memory toSet) public override onlyLD {\n        require(\n            _getRequestApproval(RID) == true,\n            \"This request has not been approved.\"\n        );\n        _setHash(RID, toSet);\n    }\n\n    function checkContractBalance() public override view returns (uint256) {\n        return address(this).balance;\n    }\n\n    function totalSupply() public override view returns (uint256) {\n        return _totalSupply;\n    }\n\n    function balanceOf(address account) public override view returns (uint256) {\n        return _balances[account];\n    }\n\n    function transfer(address recipient, uint256 amount)\n        public\n        override\n        returns (bool)\n    {\n        _transfer(_msgSender(), recipient, amount);\n        return true;\n    }\n\n    function allowance(address owner, address spender)\n        public\n        override\n        view\n        returns (uint256)\n    {\n        return _allowances[owner][spender];\n    }\n\n    function approve(address spender, uint256 amount)\n        public\n        override\n        returns (bool)\n    {\n        _approve(_msgSender(), spender, amount);\n        return true;\n    }\n\n    function transferFrom(\n        address sender,\n        address recipient,\n        uint256 amount\n    ) public override returns (bool) {\n        require(\n            sender == _msgSender() || amount <= allowance(sender, _msgSender()),\n            \"Your transaction exceeds the sender's allowance\"\n        );\n        _transfer(sender, recipient, amount);\n        _approve(\n            sender,\n            _msgSender(),\n            _allowances[sender][_msgSender()].sub(amount)\n        );\n        return true;\n    }\n\n    function sendToken() public payable {\n        require(msg.value == _costWei, \"not enough wei\");\n        _transfer(_minter, msg.sender, _costToken);\n    }\n\n    function increaseAllowance(address spender, uint256 addedValue)\n        public\n        returns (bool)\n    {\n        _approve(\n            _msgSender(),\n            spender,\n            _allowances[_msgSender()][spender].add(addedValue)\n        );\n        return true;\n    }\n\n    function decreaseAllowance(address spender, uint256 subtractedValue)\n        public\n        returns (bool)\n    {\n        _approve(\n            _msgSender(),\n            spender,\n            _allowances[_msgSender()][spender].sub(subtractedValue)\n        );\n        return true;\n    }\n\n    function _transfer(\n        address sender,\n        address recipient,\n        uint256 amount\n    ) internal {\n        require(sender != address(0), \"ERC20: transfer from the zero address\");\n        require(recipient != address(0), \"ERC20: transfer to the zero address\");\n\n        _balances[sender] = _balances[sender].sub(amount);\n        _balances[recipient] = _balances[recipient].add(amount);\n        emit Transfer(sender, recipient, amount);\n    }\n\n    function _mint(address account, uint256 amount) internal onlyLD {\n        require(account != address(0), \"ERC20: mint to the zero address\");\n\n        _totalSupply = _totalSupply.add(amount);\n        _balances[account] = _balances[account].add(amount);\n        emit Transfer(address(0), account, amount);\n    }\n\n    function _burn(address account, uint256 amount) internal onlyLD {\n        require(account != address(0), \"ERC20: burn from the zero address\");\n\n        _balances[account] = _balances[account].sub(amount);\n        _totalSupply = _totalSupply.sub(amount);\n        emit Transfer(account, address(0), amount);\n    }\n\n    function _approve(\n        address owner,\n        address spender,\n        uint256 amount\n    ) internal {\n        require(owner != address(0), \"ERC20: approve from the zero address\");\n        require(spender != address(0), \"ERC20: approve to the zero address\");\n\n        _allowances[owner][spender] = amount;\n        emit Approval(owner, spender, amount);\n    }\n\n    function _burnFrom(address account, uint256 amount) internal {\n        _burn(account, amount);\n        _approve(\n            account,\n            _msgSender(),\n            _allowances[account][_msgSender()].sub(amount)\n        );\n    }\n\n    function _burnContract() private onlyLD {\n        require(\n            checkContractBalance() >= _costWei,\n            \"Not enough wei on this contract to burn.\"\n        );\n        address(0x0).transfer(_costWei); //proof of burn\n    }\n\n    function _getRequestHash(uint256 RID) private view returns (string memory) {\n        return requests[RID].docHash;\n    }\n\n    function _getRequestApproval(uint256 RID) private view returns (bool) {\n        return requests[RID].approval;\n    }\n\n    function _getRequestAddress(uint256 RID) private view returns (address) {\n        return requests[RID].companyAddress;\n    }\n\n    function _getRequestStatus(uint256 RID) private view returns (bool) {\n        return requests[RID].status;\n    }\n\n    function _getRequestData(uint256 RID) private view returns (string memory) {\n        return requests[RID].encryptedData;\n    }\n\n    function _setRequestStatus(uint256 RID, bool toSet) private onlyLD {\n        require(RID <= _RIDglobal, \"Your RID is incorrect.\");\n        requests[RID].status = toSet;\n    }\n\n    function _setRequestApproval(uint256 RID, bool decision) private onlyLD {\n        require(RID <= _RIDglobal, \"Your RID is incorrect.\");\n        requests[RID].approval = decision;\n    }\n\n    function _setHash(uint256 RID, string memory setHash) private onlyLD {\n        require(RID <= _RIDglobal, \"Your RID is incorrect.\");\n        requests[RID].docHash = setHash;\n    }\n\n    constructor() public {\n        _minter = _msgSender();\n        _LDaddress = _msgSender();\n        _costWei = 1000000000000000000;\n        _costToken = 100;\n        _RIDglobal = 0;\n        _mint(_minter, 1000000000000);\n    }\n}\n",
  "sourcePath": "contracts/Land.sol",
  "abi": [
    {
      "inputs": [],
      "stateMutability": "nonpayable",
      "type": "constructor"
    },
    {
      "anonymous": false,
      "inputs": [
        {
          "indexed": true,
          "internalType": "address",
          "name": "owner",
          "type": "address"
        },
        {
          "indexed": true,
          "internalType": "address",
          "name": "spender",
          "type": "address"
        },
        {
          "indexed": false,
          "internalType": "uint256",
          "name": "value",
          "type": "uint256"
        }
      ],
      "name": "Approval",
      "type": "event"
    },
    {
      "anonymous": false,
      "inputs": [
        {
          "indexed": false,
          "internalType": "uint256",
          "name": "RID",
          "type": "uint256"
        },
        {
          "indexed": false,
          "internalType": "bool",
          "name": "status",
          "type": "bool"
        },
        {
          "indexed": false,
          "internalType": "bool",
          "name": "approval",
          "type": "bool"
        }
      ],
      "name": "DecisionOnRequest",
      "type": "event"
    },
    {
      "anonymous": false,
      "inputs": [
        {
          "indexed": true,
          "internalType": "address",
          "name": "from",
          "type": "address"
        },
        {
          "indexed": true,
          "internalType": "address",
          "name": "to",
          "type": "address"
        },
        {
          "indexed": false,
          "internalType": "uint256",
          "name": "value",
          "type": "uint256"
        },
        {
          "indexed": false,
          "internalType": "uint256",
          "name": "RID",
          "type": "uint256"
        }
      ],
      "name": "RequestSent",
      "type": "event"
    },
    {
      "anonymous": false,
      "inputs": [
        {
          "indexed": true,
          "internalType": "address",
          "name": "from",
          "type": "address"
        },
        {
          "indexed": true,
          "internalType": "address",
          "name": "to",
          "type": "address"
        },
        {
          "indexed": false,
          "internalType": "uint256",
          "name": "value",
          "type": "uint256"
        }
      ],
      "name": "Transfer",
      "type": "event"
    },
    {
      "inputs": [
        {
          "internalType": "uint256",
          "name": "RID",
          "type": "uint256"
        },
        {
          "internalType": "string",
          "name": "hash",
          "type": "string"
        }
      ],
      "name": "acceptRequest",
      "outputs": [],
      "stateMutability": "nonpayable",
      "type": "function"
    },
    {
      "inputs": [
        {
          "internalType": "address",
          "name": "owner",
          "type": "address"
        },
        {
          "internalType": "address",
          "name": "spender",
          "type": "address"
        }
      ],
      "name": "allowance",
      "outputs": [
        {
          "internalType": "uint256",
          "name": "",
          "type": "uint256"
        }
      ],
      "stateMutability": "view",
      "type": "function"
    },
    {
      "inputs": [
        {
          "internalType": "address",
          "name": "spender",
          "type": "address"
        },
        {
          "internalType": "uint256",
          "name": "amount",
          "type": "uint256"
        }
      ],
      "name": "approve",
      "outputs": [
        {
          "internalType": "bool",
          "name": "",
          "type": "bool"
        }
      ],
      "stateMutability": "nonpayable",
      "type": "function"
    },
    {
      "inputs": [
        {
          "internalType": "address",
          "name": "account",
          "type": "address"
        }
      ],
      "name": "balanceOf",
      "outputs": [
        {
          "internalType": "uint256",
          "name": "",
          "type": "uint256"
        }
      ],
      "stateMutability": "view",
      "type": "function"
    },
    {
      "inputs": [],
      "name": "checkContractBalance",
      "outputs": [
        {
          "internalType": "uint256",
          "name": "",
          "type": "uint256"
        }
      ],
      "stateMutability": "view",
      "type": "function"
    },
    {
      "inputs": [
        {
          "internalType": "uint256",
          "name": "RID",
          "type": "uint256"
        }
      ],
      "name": "checkRequest",
      "outputs": [
        {
          "internalType": "uint256",
          "name": "",
          "type": "uint256"
        },
        {
          "internalType": "bool",
          "name": "",
          "type": "bool"
        },
        {
          "internalType": "bool",
          "name": "",
          "type": "bool"
        },
        {
          "internalType": "address",
          "name": "",
          "type": "address"
        },
        {
          "internalType": "string",
          "name": "",
          "type": "string"
        },
        {
          "internalType": "string",
          "name": "",
          "type": "string"
        }
      ],
      "stateMutability": "view",
      "type": "function"
    },
    {
      "inputs": [
        {
          "internalType": "address",
          "name": "spender",
          "type": "address"
        },
        {
          "internalType": "uint256",
          "name": "subtractedValue",
          "type": "uint256"
        }
      ],
      "name": "decreaseAllowance",
      "outputs": [
        {
          "internalType": "bool",
          "name": "",
          "type": "bool"
        }
      ],
      "stateMutability": "nonpayable",
      "type": "function"
    },
    {
      "inputs": [],
      "name": "getGlobalId",
      "outputs": [
        {
          "internalType": "uint256",
          "name": "",
          "type": "uint256"
        }
      ],
      "stateMutability": "view",
      "type": "function"
    },
    {
      "inputs": [
        {
          "internalType": "address",
          "name": "spender",
          "type": "address"
        },
        {
          "internalType": "uint256",
          "name": "addedValue",
          "type": "uint256"
        }
      ],
      "name": "increaseAllowance",
      "outputs": [
        {
          "internalType": "bool",
          "name": "",
          "type": "bool"
        }
      ],
      "stateMutability": "nonpayable",
      "type": "function"
    },
    {
      "inputs": [],
      "name": "isLD",
      "outputs": [
        {
          "internalType": "bool",
          "name": "",
          "type": "bool"
        }
      ],
      "stateMutability": "view",
      "type": "function"
    },
    {
      "inputs": [
        {
          "internalType": "uint256",
          "name": "RID",
          "type": "uint256"
        }
      ],
      "name": "rejectRequest",
      "outputs": [],
      "stateMutability": "nonpayable",
      "type": "function"
    },
    {
      "inputs": [
        {
          "internalType": "uint256",
          "name": "",
          "type": "uint256"
        }
      ],
      "name": "requests",
      "outputs": [
        {
          "internalType": "uint256",
          "name": "RID",
          "type": "uint256"
        },
        {
          "internalType": "bool",
          "name": "status",
          "type": "bool"
        },
        {
          "internalType": "bool",
          "name": "approval",
          "type": "bool"
        },
        {
          "internalType": "address",
          "name": "companyAddress",
          "type": "address"
        },
        {
          "internalType": "string",
          "name": "encryptedData",
          "type": "string"
        },
        {
          "internalType": "string",
          "name": "docHash",
          "type": "string"
        }
      ],
      "stateMutability": "view",
      "type": "function"
    },
    {
      "inputs": [
        {
          "internalType": "string",
          "name": "encryptedData",
          "type": "string"
        },
        {
          "internalType": "string",
          "name": "docHash",
          "type": "string"
        }
      ],
      "name": "sendRequest",
      "outputs": [
        {
          "internalType": "uint256",
          "name": "",
          "type": "uint256"
        }
      ],
      "stateMutability": "nonpayable",
      "type": "function"
    },
    {
      "inputs": [],
      "name": "sendToken",
      "outputs": [],
      "stateMutability": "payable",
      "type": "function"
    },
    {
      "inputs": [
        {
          "internalType": "uint256",
          "name": "RID",
          "type": "uint256"
        },
        {
          "internalType": "string",
          "name": "toSet",
          "type": "string"
        }
      ],
      "name": "setHash",
      "outputs": [],
      "stateMutability": "nonpayable",
      "type": "function"
    },
    {
      "inputs": [],
      "name": "totalSupply",
      "outputs": [
        {
          "internalType": "uint256",
          "name": "",
          "type": "uint256"
        }
      ],
      "stateMutability": "view",
      "type": "function"
    },
    {
      "inputs": [
        {
          "internalType": "address",
          "name": "recipient",
          "type": "address"
        },
        {
          "internalType": "uint256",
          "name": "amount",
          "type": "uint256"
        }
      ],
      "name": "transfer",
      "outputs": [
        {
          "internalType": "bool",
          "name": "",
          "type": "bool"
        }
      ],
      "stateMutability": "nonpayable",
      "type": "function"
    },
    {
      "inputs": [
        {
          "internalType": "address",
          "name": "sender",
          "type": "address"
        },
        {
          "internalType": "address",
          "name": "recipient",
          "type": "address"
        },
        {
          "internalType": "uint256",
          "name": "amount",
          "type": "uint256"
        }
      ],
      "name": "transferFrom",
      "outputs": [
        {
          "internalType": "bool",
          "name": "",
          "type": "bool"
        }
      ],
      "stateMutability": "nonpayable",
      "type": "function"
    }
  ],
  "bytecode": "0x60806040523480156200001157600080fd5b50620000226200011060201b60201c565b600360006101000a81548173ffffffffffffffffffffffffffffffffffffffff021916908373ffffffffffffffffffffffffffffffffffffffff160217905550620000726200011060201b60201c565b600860006101000a81548173ffffffffffffffffffffffffffffffffffffffff021916908373ffffffffffffffffffffffffffffffffffffffff160217905550670de0b6b3a7640000600581905550606460068190555060006007819055506200010a600360009054906101000a900473ffffffffffffffffffffffffffffffffffffffff1664e8d4a510006200011860201b60201c565b62000439565b600033905090565b620001286200034960201b60201c565b6200017f576040517f08c379a000000000000000000000000000000000000000000000000000000000815260040180806020018281038252603181526020018062002b856031913960400191505060405180910390fd5b600073ffffffffffffffffffffffffffffffffffffffff168273ffffffffffffffffffffffffffffffffffffffff16141562000223576040517f08c379a000000000000000000000000000000000000000000000000000000000815260040180806020018281038252601f8152602001807f45524332303a206d696e7420746f20746865207a65726f20616464726573730081525060200191505060405180910390fd5b6200023f81600454620003b060201b6200197e1790919060201c565b6004819055506200029d816000808573ffffffffffffffffffffffffffffffffffffffff1673ffffffffffffffffffffffffffffffffffffffff16815260200190815260200160002054620003b060201b6200197e1790919060201c565b6000808473ffffffffffffffffffffffffffffffffffffffff1673ffffffffffffffffffffffffffffffffffffffff168152602001908152602001600020819055508173ffffffffffffffffffffffffffffffffffffffff16600073ffffffffffffffffffffffffffffffffffffffff167fddf252ad1be2c89b69c2b068fc378daa952ba7f163c4a11628f55a4df523b3ef836040518082815260200191505060405180910390a35050565b6000600360009054906101000a900473ffffffffffffffffffffffffffffffffffffffff1673ffffffffffffffffffffffffffffffffffffffff16620003946200011060201b60201c565b73ffffffffffffffffffffffffffffffffffffffff1614905090565b6000808284019050838110156200042f576040517f08c379a000000000000000000000000000000000000000000000000000000000815260040180806020018281038252601b8152602001807f536166654d6174683a206164646974696f6e206f766572666c6f77000000000081525060200191505060405180910390fd5b8091505092915050565b61273c80620004496000396000f3fe6080604052600436106101095760003560e01c806350312c9e11610095578063a457c2d711610064578063a457c2d714610967578063a9059cbb146109d8578063b8972db514610a49578063bef3373114610a53578063dd62ed3e14610a7e57610109565b806350312c9e1461075457806370a082311461077f57806381d12c58146107e45780639df3bbb91461093a57610109565b806323b872dd116100dc57806323b872dd146103ef5780632d7788db146104805780632fbaba26146104bb578063395093511461058d57806340c57998146105fe57610109565b8063041394851461010e578063095ea7b31461028157806318160ddd146102f257806323a28a5e1461031d575b600080fd5b34801561011a57600080fd5b5061026b6004803603604081101561013157600080fd5b810190808035906020019064010000000081111561014e57600080fd5b82018360208201111561016057600080fd5b8035906020019184600183028401116401000000008311171561018257600080fd5b91908080601f016020809104026020016040519081016040528093929190818152602001838380828437600081840152601f19601f820116905080830192505050505050509192919290803590602001906401000000008111156101e557600080fd5b8201836020820111156101f757600080fd5b8035906020019184600183028401116401000000008311171561021957600080fd5b91908080601f016020809104026020016040519081016040528093929190818152602001838380828437600081840152601f19601f820116905080830192505050505050509192919290505050610b03565b6040518082815260200191505060405180910390f35b34801561028d57600080fd5b506102da600480360360408110156102a457600080fd5b81019080803573ffffffffffffffffffffffffffffffffffffffff16906020019092919080359060200190929190505050610dfc565b60405180821515815260200191505060405180910390f35b3480156102fe57600080fd5b50610307610e1a565b6040518082815260200191505060405180910390f35b34801561032957600080fd5b506103ed6004803603604081101561034057600080fd5b81019080803590602001909291908035906020019064010000000081111561036757600080fd5b82018360208201111561037957600080fd5b8035906020019184600183028401116401000000008311171561039b57600080fd5b91908080601f016020809104026020016040519081016040528093929190818152602001838380828437600081840152601f19601f820116905080830192505050505050509192919290505050610e24565b005b3480156103fb57600080fd5b506104686004803603606081101561041257600080fd5b81019080803573ffffffffffffffffffffffffffffffffffffffff169060200190929190803573ffffffffffffffffffffffffffffffffffffffff16906020019092919080359060200190929190505050610f82565b60405180821515815260200191505060405180910390f35b34801561048c57600080fd5b506104b9600480360360208110156104a357600080fd5b81019080803590602001909291905050506110e7565b005b3480156104c757600080fd5b5061058b600480360360408110156104de57600080fd5b81019080803590602001909291908035906020019064010000000081111561050557600080fd5b82018360208201111561051757600080fd5b8035906020019184600183028401116401000000008311171561053957600080fd5b91908080601f016020809104026020016040519081016040528093929190818152602001838380828437600081840152601f19601f82011690508083019250505050505050919291929050505061132c565b005b34801561059957600080fd5b506105e6600480360360408110156105b057600080fd5b81019080803573ffffffffffffffffffffffffffffffffffffffff169060200190929190803590602001909291905050506113fc565b60405180821515815260200191505060405180910390f35b34801561060a57600080fd5b506106376004803603602081101561062157600080fd5b81019080803590602001909291905050506114af565b60405180878152602001861515815260200185151581526020018473ffffffffffffffffffffffffffffffffffffffff1681526020018060200180602001838103835285818151815260200191508051906020019080838360005b838110156106ad578082015181840152602081019050610692565b50505050905090810190601f1680156106da5780820380516001836020036101000a031916815260200191505b50838103825284818151815260200191508051906020019080838360005b838110156107135780820151818401526020810190506106f8565b50505050905090810190601f1680156107405780820380516001836020036101000a031916815260200191505b509850505050505050505060405180910390f35b34801561076057600080fd5b506107696114fb565b6040518082815260200191505060405180910390f35b34801561078b57600080fd5b506107ce600480360360208110156107a257600080fd5b81019080803573ffffffffffffffffffffffffffffffffffffffff16906020019092919050505061151a565b6040518082815260200191505060405180910390f35b3480156107f057600080fd5b5061081d6004803603602081101561080757600080fd5b8101908080359060200190929190505050611562565b60405180878152602001861515815260200185151581526020018473ffffffffffffffffffffffffffffffffffffffff1681526020018060200180602001838103835285818151815260200191508051906020019080838360005b83811015610893578082015181840152602081019050610878565b50505050905090810190601f1680156108c05780820380516001836020036101000a031916815260200191505b50838103825284818151815260200191508051906020019080838360005b838110156108f95780820151818401526020810190506108de565b50505050905090810190601f1680156109265780820380516001836020036101000a031916815260200191505b509850505050505050505060405180910390f35b34801561094657600080fd5b5061094f611715565b60405180821515815260200191505060405180910390f35b34801561097357600080fd5b506109c06004803603604081101561098a57600080fd5b81019080803573ffffffffffffffffffffffffffffffffffffffff16906020019092919080359060200190929190505050611774565b60405180821515815260200191505060405180910390f35b3480156109e457600080fd5b50610a31600480360360408110156109fb57600080fd5b81019080803573ffffffffffffffffffffffffffffffffffffffff16906020019092919080359060200190929190505050611827565b60405180821515815260200191505060405180910390f35b610a51611845565b005b348015610a5f57600080fd5b50610a686118ed565b6040518082815260200191505060405180910390f35b348015610a8a57600080fd5b50610aed60048036036040811015610aa157600080fd5b81019080803573ffffffffffffffffffffffffffffffffffffffff169060200190929190803573ffffffffffffffffffffffffffffffffffffffff1690602001909291905050506118f7565b6040518082815260200191505060405180910390f35b6000600654610b18610b13611a06565b61151a565b1015610b6f576040517f08c379a000000000000000000000000000000000000000000000000000000000815260040180806020018281038252602181526020018061266d6021913960400191505060405180910390fd5b610b9d600360009054906101000a900473ffffffffffffffffffffffffffffffffffffffff16600654611827565b50610ba6611a06565b60026000600754815260200190815260200160002060006101000a81548173ffffffffffffffffffffffffffffffffffffffff021916908373ffffffffffffffffffffffffffffffffffffffff16021790555060096040518060c001604052806007548152602001600015158152602001600015158152602001610c28611a06565b73ffffffffffffffffffffffffffffffffffffffff1681526020018581526020018481525090806001815401808255809150506001900390600052602060002090600402016000909190919091506000820151816000015560208201518160010160006101000a81548160ff02191690831515021790555060408201518160010160016101000a81548160ff02191690831515021790555060608201518160010160026101000a81548173ffffffffffffffffffffffffffffffffffffffff021916908373ffffffffffffffffffffffffffffffffffffffff1602179055506080820151816002019080519060200190610d23929190612507565b5060a0820151816003019080519060200190610d40929190612507565b505050600360009054906101000a900473ffffffffffffffffffffffffffffffffffffffff1673ffffffffffffffffffffffffffffffffffffffff16610d84611a06565b73ffffffffffffffffffffffffffffffffffffffff167fd8502b3ec2b02f9455f2a368552b371070e0f377a826fda043e517d9ea74cd9c600654600754604051808381526020018281526020019250505060405180910390a36001600760008282540192505081905550600160075403905092915050565b6000610e10610e09611a06565b8484611a0e565b6001905092915050565b6000600454905090565b610e2c611715565b610e81576040517f08c379a00000000000000000000000000000000000000000000000000000000081526004018080602001828103825260318152602001806125ea6031913960400191505060405180910390fd5b60001515610e8e83611c05565b151514610f03576040517f08c379a00000000000000000000000000000000000000000000000000000000081526004018080602001828103825260198152602001807f5265717565737420686173206265656e20646563696465642e0000000000000081525060200191505060405180910390fd5b610f0e826001611c3a565b610f19826001611d49565b610f238282611e58565b7feae17763980c45230596655b09e21bcc8827c6771b28a68c8b0f36792d22cb8782610f4e84611c05565b610f5785611f64565b6040518084815260200183151581526020018215158152602001935050505060405180910390a15050565b6000610f8c611a06565b73ffffffffffffffffffffffffffffffffffffffff168473ffffffffffffffffffffffffffffffffffffffff161480610fd55750610fd184610fcc611a06565b6118f7565b8211155b61102a576040517f08c379a000000000000000000000000000000000000000000000000000000000815260040180806020018281038252602f81526020018061261b602f913960400191505060405180910390fd5b611035848484611f99565b6110dc84611041611a06565b6110d785600160008a73ffffffffffffffffffffffffffffffffffffffff1673ffffffffffffffffffffffffffffffffffffffff168152602001908152602001600020600061108e611a06565b73ffffffffffffffffffffffffffffffffffffffff1673ffffffffffffffffffffffffffffffffffffffff1681526020019081526020016000205461223590919063ffffffff16565b611a0e565b600190509392505050565b6110ef611715565b611144576040517f08c379a00000000000000000000000000000000000000000000000000000000081526004018080602001828103825260318152602001806125ea6031913960400191505060405180910390fd5b600654611172600360009054906101000a900473ffffffffffffffffffffffffffffffffffffffff1661151a565b10156111c9576040517f08c379a000000000000000000000000000000000000000000000000000000000815260040180806020018281038252603081526020018061268e6030913960400191505060405180910390fd5b600015156111d682611c05565b15151461124b576040517f08c379a00000000000000000000000000000000000000000000000000000000081526004018080602001828103825260198152602001807f5265717565737420686173206265656e20646563696465642e0000000000000081525060200191505060405180910390fd5b611256816001611c3a565b611261816000611d49565b6112ce600360009054906101000a900473ffffffffffffffffffffffffffffffffffffffff166009838154811061129457fe5b906000526020600020906004020160010160029054906101000a900473ffffffffffffffffffffffffffffffffffffffff16600654611f99565b7feae17763980c45230596655b09e21bcc8827c6771b28a68c8b0f36792d22cb87816112f983611c05565b61130284611f64565b6040518084815260200183151581526020018215158152602001935050505060405180910390a150565b611334611715565b611389576040517f08c379a00000000000000000000000000000000000000000000000000000000081526004018080602001828103825260318152602001806125ea6031913960400191505060405180910390fd5b6001151561139683611f64565b1515146113ee576040517f08c379a000000000000000000000000000000000000000000000000000000000815260040180806020018281038252602381526020018061264a6023913960400191505060405180910390fd5b6113f88282611e58565b5050565b60006114a5611409611a06565b846114a0856001600061141a611a06565b73ffffffffffffffffffffffffffffffffffffffff1673ffffffffffffffffffffffffffffffffffffffff16815260200190815260200160002060008973ffffffffffffffffffffffffffffffffffffffff1673ffffffffffffffffffffffffffffffffffffffff1681526020019081526020016000205461197e90919063ffffffff16565b611a0e565b6001905092915050565b600080600080606080866114c288611c05565b6114cb89611f64565b6114d48a61227f565b6114dd8b6122c7565b6114e68c612387565b95509550955095509550955091939550919395565b60003073ffffffffffffffffffffffffffffffffffffffff1631905090565b60008060008373ffffffffffffffffffffffffffffffffffffffff1673ffffffffffffffffffffffffffffffffffffffff168152602001908152602001600020549050919050565b6009818154811061156f57fe5b90600052602060002090600402016000915090508060000154908060010160009054906101000a900460ff16908060010160019054906101000a900460ff16908060010160029054906101000a900473ffffffffffffffffffffffffffffffffffffffff1690806002018054600181600116156101000203166002900480601f01602080910402602001604051908101604052809291908181526020018280546001816001161561010002031660029004801561166d5780601f106116425761010080835404028352916020019161166d565b820191906000526020600020905b81548152906001019060200180831161165057829003601f168201915b505050505090806003018054600181600116156101000203166002900480601f01602080910402602001604051908101604052809291908181526020018280546001816001161561010002031660029004801561170b5780601f106116e05761010080835404028352916020019161170b565b820191906000526020600020905b8154815290600101906020018083116116ee57829003601f168201915b5050505050905086565b6000600360009054906101000a900473ffffffffffffffffffffffffffffffffffffffff1673ffffffffffffffffffffffffffffffffffffffff16611758611a06565b73ffffffffffffffffffffffffffffffffffffffff1614905090565b600061181d611781611a06565b846118188560016000611792611a06565b73ffffffffffffffffffffffffffffffffffffffff1673ffffffffffffffffffffffffffffffffffffffff16815260200190815260200160002060008973ffffffffffffffffffffffffffffffffffffffff1673ffffffffffffffffffffffffffffffffffffffff1681526020019081526020016000205461223590919063ffffffff16565b611a0e565b6001905092915050565b600061183b611834611a06565b8484611f99565b6001905092915050565b60055434146118bc576040517f08c379a000000000000000000000000000000000000000000000000000000000815260040180806020018281038252600e8152602001807f6e6f7420656e6f7567682077656900000000000000000000000000000000000081525060200191505060405180910390fd5b6118eb600360009054906101000a900473ffffffffffffffffffffffffffffffffffffffff1633600654611f99565b565b6000600754905090565b6000600160008473ffffffffffffffffffffffffffffffffffffffff1673ffffffffffffffffffffffffffffffffffffffff16815260200190815260200160002060008373ffffffffffffffffffffffffffffffffffffffff1673ffffffffffffffffffffffffffffffffffffffff16815260200190815260200160002054905092915050565b6000808284019050838110156119fc576040517f08c379a000000000000000000000000000000000000000000000000000000000815260040180806020018281038252601b8152602001807f536166654d6174683a206164646974696f6e206f766572666c6f77000000000081525060200191505060405180910390fd5b8091505092915050565b600033905090565b600073ffffffffffffffffffffffffffffffffffffffff168373ffffffffffffffffffffffffffffffffffffffff161415611a94576040517f08c379a00000000000000000000000000000000000000000000000000000000081526004018080602001828103825260248152602001806126e36024913960400191505060405180910390fd5b600073ffffffffffffffffffffffffffffffffffffffff168273ffffffffffffffffffffffffffffffffffffffff161415611b1a576040517f08c379a00000000000000000000000000000000000000000000000000000000081526004018080602001828103825260228152602001806125c86022913960400191505060405180910390fd5b80600160008573ffffffffffffffffffffffffffffffffffffffff1673ffffffffffffffffffffffffffffffffffffffff16815260200190815260200160002060008473ffffffffffffffffffffffffffffffffffffffff1673ffffffffffffffffffffffffffffffffffffffff168152602001908152602001600020819055508173ffffffffffffffffffffffffffffffffffffffff168373ffffffffffffffffffffffffffffffffffffffff167f8c5be1e5ebec7d5bd14f71427d1e84f3dd0314c0f7b2291e5b200ac8c7c3b925836040518082815260200191505060405180910390a3505050565b600060098281548110611c1457fe5b906000526020600020906004020160010160009054906101000a900460ff169050919050565b611c42611715565b611c97576040517f08c379a00000000000000000000000000000000000000000000000000000000081526004018080602001828103825260318152602001806125ea6031913960400191505060405180910390fd5b600754821115611d0f576040517f08c379a00000000000000000000000000000000000000000000000000000000081526004018080602001828103825260168152602001807f596f75722052494420697320696e636f72726563742e0000000000000000000081525060200191505060405180910390fd5b8060098381548110611d1d57fe5b906000526020600020906004020160010160006101000a81548160ff0219169083151502179055505050565b611d51611715565b611da6576040517f08c379a00000000000000000000000000000000000000000000000000000000081526004018080602001828103825260318152602001806125ea6031913960400191505060405180910390fd5b600754821115611e1e576040517f08c379a00000000000000000000000000000000000000000000000000000000081526004018080602001828103825260168152602001807f596f75722052494420697320696e636f72726563742e0000000000000000000081525060200191505060405180910390fd5b8060098381548110611e2c57fe5b906000526020600020906004020160010160016101000a81548160ff0219169083151502179055505050565b611e60611715565b611eb5576040517f08c379a00000000000000000000000000000000000000000000000000000000081526004018080602001828103825260318152602001806125ea6031913960400191505060405180910390fd5b600754821115611f2d576040517f08c379a00000000000000000000000000000000000000000000000000000000081526004018080602001828103825260168152602001807f596f75722052494420697320696e636f72726563742e0000000000000000000081525060200191505060405180910390fd5b8060098381548110611f3b57fe5b90600052602060002090600402016003019080519060200190611f5f929190612507565b505050565b600060098281548110611f7357fe5b906000526020600020906004020160010160019054906101000a900460ff169050919050565b600073ffffffffffffffffffffffffffffffffffffffff168373ffffffffffffffffffffffffffffffffffffffff16141561201f576040517f08c379a00000000000000000000000000000000000000000000000000000000081526004018080602001828103825260258152602001806126be6025913960400191505060405180910390fd5b600073ffffffffffffffffffffffffffffffffffffffff168273ffffffffffffffffffffffffffffffffffffffff1614156120a5576040517f08c379a00000000000000000000000000000000000000000000000000000000081526004018080602001828103825260238152602001806125a56023913960400191505060405180910390fd5b6120f6816000808673ffffffffffffffffffffffffffffffffffffffff1673ffffffffffffffffffffffffffffffffffffffff1681526020019081526020016000205461223590919063ffffffff16565b6000808573ffffffffffffffffffffffffffffffffffffffff1673ffffffffffffffffffffffffffffffffffffffff16815260200190815260200160002081905550612189816000808573ffffffffffffffffffffffffffffffffffffffff1673ffffffffffffffffffffffffffffffffffffffff1681526020019081526020016000205461197e90919063ffffffff16565b6000808473ffffffffffffffffffffffffffffffffffffffff1673ffffffffffffffffffffffffffffffffffffffff168152602001908152602001600020819055508173ffffffffffffffffffffffffffffffffffffffff168373ffffffffffffffffffffffffffffffffffffffff167fddf252ad1be2c89b69c2b068fc378daa952ba7f163c4a11628f55a4df523b3ef836040518082815260200191505060405180910390a3505050565b600061227783836040518060400160405280601e81526020017f536166654d6174683a207375627472616374696f6e206f766572666c6f770000815250612447565b905092915050565b60006009828154811061228e57fe5b906000526020600020906004020160010160029054906101000a900473ffffffffffffffffffffffffffffffffffffffff169050919050565b6060600982815481106122d657fe5b90600052602060002090600402016002018054600181600116156101000203166002900480601f01602080910402602001604051908101604052809291908181526020018280546001816001161561010002031660029004801561237b5780601f106123505761010080835404028352916020019161237b565b820191906000526020600020905b81548152906001019060200180831161235e57829003601f168201915b50505050509050919050565b60606009828154811061239657fe5b90600052602060002090600402016003018054600181600116156101000203166002900480601f01602080910402602001604051908101604052809291908181526020018280546001816001161561010002031660029004801561243b5780601f106124105761010080835404028352916020019161243b565b820191906000526020600020905b81548152906001019060200180831161241e57829003601f168201915b50505050509050919050565b60008383111582906124f4576040517f08c379a00000000000000000000000000000000000000000000000000000000081526004018080602001828103825283818151815260200191508051906020019080838360005b838110156124b957808201518184015260208101905061249e565b50505050905090810190601f1680156124e65780820380516001836020036101000a031916815260200191505b509250505060405180910390fd5b5060008385039050809150509392505050565b828054600181600116156101000203166002900490600052602060002090601f016020900481019282601f1061254857805160ff1916838001178555612576565b82800160010185558215612576579182015b8281111561257557825182559160200191906001019061255a565b5b5090506125839190612587565b5090565b5b808211156125a0576000816000905550600101612588565b509056fe45524332303a207472616e7366657220746f20746865207a65726f206164647265737345524332303a20617070726f766520746f20746865207a65726f20616464726573734f6e6c79204465706172746d656e74206f66204c616e6420686173207065726d697373696f6e20746f20646f2074686973596f7572207472616e73616374696f6e2065786365656473207468652073656e646572277320616c6c6f77616e636554686973207265717565737420686173206e6f74206265656e20617070726f7665642e4e6f7420656e6f75676820746f6b656e7320696e20796f7572206163636f756e744e6f7420656e6f75676820746f6b656e7320696e206d696e746572206163636f756e7420746f207472616e736665722e45524332303a207472616e736665722066726f6d20746865207a65726f206164647265737345524332303a20617070726f76652066726f6d20746865207a65726f2061646472657373a2646970667358221220d59447611b8558a2a834256ef2dd89a9922f8d9cdb54927c84ae4d2dc43b4e2a64736f6c634300060c00334f6e6c79204465706172746d656e74206f66204c616e6420686173207065726d697373696f6e20746f20646f2074686973",
  "compiler": {
    "name": "solc",
    "version": "0.6.12+commit.27d51765.Emscripten.clang",
    "optimizer": {
      "enabled": false,
      "runs": 200
    },
    "evmVersion": "petersburg"
  }
}